:020000040800F2
:100000000007002439030008B9240008B1230008C0
:10001000B124000831050008F1310008000000009B
:10002000000000000000000000000000C9270008D8
:100030003905000800000000F1240008012800082C
:100040005303000853030008530300085303000838
:100050005303000853030008530300085303000828
:100060005303000853030008530300085303000818
:100070005303000853030008530300085303000808
:1000800053030008530300085303000853030008F8
:1000900053030008530300085303000853030008E8
:1000A00053030008530300085303000853030008D8
:1000B00053030008530300085303000853030008C8
:1000C00053030008530300085303000853030008B8
:1000D00053030008E13100085303000853030008EC
:1000E00053030008530300080000000053030008F6
:1000F0005303000853030008530300085303000888
:100100005303000853030008530300085303000877
:100110005303000853030008530300085303000867
:100120005303000853030008530300085303000857
:100130005303000853030008530300085303000847
:1001400000000000000000000000000000000000AF
:100150005303000853030008530300085303000827
:100160005303000853030008530300085303000817
:100170005303000853030008530300080000000065
:1001800053030008530300085303000853030008F7
:1001900053030008530300085303000853030008E7
:1001A00053030008530300085303000853030008D7
:1001B00053030008530300085303000853030008C7
:1001C00053030008530300085303000853030008B7
:1001D00053030008530300085303000853030008A7
:1001E0005303000853030008530300085303000897
:1001F0005303000853030008530300085303000887
:100200005303000853030008530300085303000876
:100210005303000853030008530300085303000866
:1002200053030008530300085303000800000000B4
:1002300053030008530300080000000053030008A4
:100240005303000853030008530300085303000836
:100250005303000853030008530300085303000826
:100260005303000853030008530300085303000816
:100270005303000853030008530300080000000064
:100280005303000853030008530300080000000054
:10029000000000005303000800F002F800F03CF8F2
:1002A0000AA090E8000C82448344AAF10107DA45D1
:1002B00001D100F031F8AFF2090EBAE80F0013F0E7
:1002C000010F18BFFB1A43F0010318471830000054
:1002D00038300000103A24BF78C878C1FAD85207E5
:1002E00024BF30C830C144BF04680C6070470000B0
:1002F0000023002400250026103A28BF78C1FBD82F
:10030000520728BF30C148BF0B6070471FB502F0CD
:10031000C0FF1FBD10B510BD00F0D0F81146FFF7AB
:10032000F5FF02F0A5FF00F0EEF803B4FFF7F2FFCF
:1003300003BC00F0F5F80000094880470948004771
:10034000FEE7FEE7FEE7FEE7FEE7FEE7FEE7FEE785
:10035000FEE7FEE704480549054A064B70470000E2
:10036000D128000899020008000100240007002499
:10037000000300240003002453EA020C00F069800B
:100380002DE9F04B4FF00006002B1FBFB3FA83F5A9
:1003900003FA05F424FA05F65E4012BF1643B2FADA
:1003A00082F502FA05F4C5F120051EBF22FA05FC0C
:1003B00044EA0C04203556EA044C4FEA144418BFB2
:1003C000641C4FF000084FF00009904271EB030CE1
:1003D00039D3002919BFB1FA81F701FA07F6B0FA4B
:1003E00080F700FA07F6C7F120071EBF20FA07FCC6
:1003F00046EA0C062037B6FBF4FCA7EB0507103FD6
:1004000007F01F0BCBF120062CFA06F60CFA0BFBBB
:1004100044BFB3460026202FA4BF5E464FF0000B1A
:100420005BEA060C08BF4FF0010B19EB0B0948EB18
:100430000608ABFB027C06FB02CC0BFB03CCC01B0B
:1004400071EB0C01C1E70B46024641464846BDE848
:10045000F08B13B5084318BF4FF0FF300146AFF3E0
:100460000080BDE81C4070474FF0000200B5134605
:1004700094469646203922BFA0E80C50A0E80C50C4
:10048000B1F12001BFF4F7AF090728BFA0E80C5075
:1004900048BF0CC05DF804EB890028BF40F8042B6E
:1004A00008BF704748BF20F8022B11F0804F18BFDB
:1004B00000F8012B7047704770477047754600F091
:1004C0002BF8AE4605006946534620F007008546E6
:1004D00018B020B5FFF73EFFBDE820404FF0000602
:1004E0004FF000074FF000084FF0000BAC46ACE8AF
:1004F000C009ACE8C009ACE8C009ACE8C00921F00B
:1005000007018D46704710B50446AFF300802046C2
:10051000BDE81040FFF709BF0048704710000024F5
:1005200001491820ABBEFEE726000200704700001C
:10053000FEE700000000000070470000000000001F
:10054000704700000000000080B5D8B190F8351069
:10055000022919D140F20F420168C4F2020291420D
:1005600016DC6F23C4F20203994226DC3F23C4F257
:10057000020399423CDC1023C4F2020399425AD090
:10058000282354E0012080BD80214165012080BDE9
:1005900040F26F43C4F2020399421ADC40F23F4337
:1005A000C4F2020399422ADC40F21043C4F202036F
:1005B000994240D040F2284339E09F23C4F202031D
:1005C000994225DC7023C4F20203994233D0882378
:1005D0002DE040F29F43C4F2020399421FDC40F237
:1005E0007043C4F20203994225D040F288431EE0D2
:1005F0004023C4F2020399421DD0582317E040F271
:100600004043C4F20203994215D040F258430EE031
:10061000A023C4F2020399420DD0B82307E040F2B0
:10062000B843C4F20203994205D040F2A043C4F299
:100630000203994270D191424FF0040280F83520B4
:1006400010DC6F22C4F20202914220DC3F22C4F28D
:100650000202914236DC1022C4F20202914254D0CE
:1006600028224EE040F26F42C4F2020291421ADCAC
:1006700040F23F42C4F2020291422ADC40F21042B0
:10068000C4F20202914240D040F2284239E09F2257
:10069000C4F20202914225DC7022C4F202029142AD
:1006A00033D088222DE040F29F42C4F202029142F0
:1006B0001FDC40F27042C4F20202914225D040F2A7
:1006C00088421EE04022C4F2020291421DD058220C
:1006D00017E040F24042C4F20202914215D040F2CB
:1006E00058420EE0A022C4F2020291420DD0B8227C
:1006F00007E040F2B842C4F20202914205D040F253
:10070000A042C4F20202914224D10068016821F0A3
:1007100001010160002080BD0268136823F00E0310
:10072000136045F25742C5F6020291420A6822F070
:1007300001020A6014DC45F22F42C5F60202914222
:100740001DDC45F20842C5F6020291422CD045F26A
:100750001C4225E0086820F001000860002080BDF0
:1007600045F27F42C5F60202914211DC45F2584241
:10077000C5F60202914217D045F26C4210E045F2F4
:100780003042C5F6020291420ED045F2444207E0E3
:1007900045F29442C5F60202914205D045F28042EC
:1007A000C5F6020291421AD1D0E9181CD0E916E32D
:1007B0000A6822F480720A6003F01F01012202FA23
:1007C00001F1CEF80410816ECCF80410C16E31B185
:1007D0000A6822F480720A60D0E91C124A60002183
:1007E00080F83410012280F83520026D0AB190475C
:1007F0000021084680BD0000B0B5044600F0F4F8C2
:1008000040F208010546C2F20041621C097818BF97
:100810000C4400BF00F0E8F8401BA042FAD3B0BD82
:100820002DE9F04F83B00E68002E00F0C98000F172
:1008300026420A2302F1FF7240F2040C4FEAB22270
:10084000019242F20042C5F6000CC5F602024FF0DA
:10085000010B90424FF0000508BF092300274FF01D
:10086000010800930AE000BF0E68043736FA08F268
:1008700008F1010805F1020500F0A280A8F1010AC3
:100880000BFA0AF216EA0209EED04E68122E17D8B9
:100890000BFA06F414F0061F12D00323D0F808E078
:1008A000AB40CC682EEA0303AC402343836043682B
:1008B000C6F3001423EA020204FA0AF31A43426060
:1008C0000323C268AB4046F010046FEA030E9A435C
:1008D0008B68122C03FA05F342EA0302C26012D1BC
:1008E0006FF0030207F01C0402EA5A020F260244CA
:1008F000A640136AD1F810B0B3430BFA04F44FF0DA
:10090000010B2343136202684B6803F0030402EAFD
:100910000E02AC40DB0042EA04020260A4D544F2BD
:10092000F443C5F602031A6842F002021A601A681C
:1009300007F00C0302F002020292029A2AF003026C
:1009400040F2084A019C009EC5F6000A092C38BFF7
:1009500026460F2452F80AE09C402EEA040406FAC8
:1009600003F3234342F80A30DCF87C204B6842EA68
:100970000906DC0358BF22EA09069C034FF0B04E7B
:10098000CCF87C60DCF8802042EA090658BF22EAF5
:100990000906DC02CCF88060DEF8002042EA090695
:1009A00058BF22EA09069B02CEF80060DCF800205E
:1009B00042EA090658BF22EA0906CCF8006053E76C
:1009C00003B0BDE8F08F0000002A08BF0904816170
:1009D000704700000000000041F20000C5F6004032
:1009E0000068000C7047000040F2FC00C2F20040BA
:1009F000006870470000000040F2080040F2FC016F
:100A0000C2F20040C2F2004100780A681044086057
:100A1000704700000000000080B5032000F080F85F
:100A200000F0FEFF44F2184143F2AC23C5F6020188
:100A3000C0F600030A68C2F30322096801F00F013F
:100A40009A5C595C02F01F02D04040F20402C2F2EC
:100A5000004201F01F0120FA01F1116040F2000193
:100A6000C2F200410860002000F00AF800281CBF14
:100A7000012080BD00F030F8002080BD00000000A3
:100A8000B0B540F20801C2F20041097801B3044652
:100A900040F20000C2F200404FF47A72B2FBF1F172
:100AA0000068B0FBF1F001F0A7FA0F2C4FF0010540
:100AB0000CD858B94FF0FF3000222146002500F035
:100AC0001FF840F20C00C2F2004004602846B0BD9E
:100AD0000120B0BD0000000081B044F2F440C5F632
:100AE0000200016841F002010160006800F00200AC
:100AF0000090009801B0704780B502F07DFB80BD8A
:100B000070B514460D46064602F086FB294622467D
:100B100001F0D6FC0146304602F086FB70BD0000B5
:100B200080B502F095FB80BDB0B544F60C05C5F666
:100B3000020529684907296805D401F00701081A48
:100B400018BF0120B0BD21F0070108432860FFF75E
:100B50004BFF044655F8080C800407D4FFF744FF08
:100B6000001BB0F57A7FF5D90120B0BD0020B0BDE3
:100B700080B500F005FF44F2204143F2AC22C5F6F7
:100B80000201C0F600020968C1F30211515C01F0D4
:100B90001F01C84080BD000080B544F2384EC5F644
:100BA000020E5EF8103C5EF8102CC2F3053C5EF8B5
:100BB0000C2CBCF1000FC2F30012DEF80410C1F3DC
:100BC000CC0102FB01F100EE101AB8EE400A0BD086
:100BD00003F00303022B0CD073B95EF8381C8906AE
:100BE0000DD49FED351A18E00021C0E90011816095
:100BF00080BD9FED301A10E09FED2D1A0DE05EF8DC
:100C0000381C49F20002C0F2D032C1F3C10122FA0D
:100C100001F101EE101AB8EE411A02EE10CA9FED72
:100C2000274AB8EE422ADEF800106FF35F2103EE88
:100C3000101A81EE021AB8EE433ADEF8001000EE08
:100C4000043AB7EE000AC1F3462133EE002A03EE60
:100C5000101AB8EE433A21EE021A33EE002A81EE62
:100C6000022ABCEEC22A80ED002ADEF80010C1F391
:100C7000064102EE101AB8EE422A32EE002A81EE48
:100C8000022ABCEEC22A80ED012ADEF80010C1F370
:100C9000066102EE101AB8EE422A32EE000A81EE28
:100CA000000ABCEEC00A10EE101A816080BD00BFC1
:100CB0000024744A20BCBE4B0024744C0000003950
:100CC00080B544F2404EC5F6020E5EF8183C5EF860
:100CD000182CC2F3055C5EF8142CBCF1000FC2F3B3
:100CE0000022DEF80410C1F3CC0102FB01F100EE9A
:100CF000101AB8EE400A0BD003F00303022B0CD0FD
:100D000073B95EF8401C89060DD49FED351A18E0C2
:100D10000021C0E90011816080BD9FED301A10E014
:100D20009FED2D1A0DE05EF8401C49F20002C0F262
:100D3000D032C1F3C10122FA01F101EE101AB8EE6E
:100D4000411A02EE10CA9FED274AB8EE422ADEF899
:100D500000106FF35F2103EE101A81EE021AB8EE55
:100D6000433ADEF8001000EE043AB7EE000AC1F391
:100D7000462133EE002A03EE101AB8EE433A21EE74
:100D8000021A33EE002A81EE022ABCEEC22A80ED5E
:100D9000002ADEF80010C1F3064102EE101AB8EE88
:100DA000422A32EE002A81EE022ABCEEC22A80EDEF
:100DB000012ADEF80010C1F3066102EE101AB8EE47
:100DC000422A32EE000A81EE000ABCEEC00A10EEA2
:100DD000101A816080BD00BF0024744A20BCBE4B45
:100DE0000024744C000000392DE9F04381B0044622
:100DF000C07844F22C490007C5F6020901D4002648
:100E00002DE0606E4FEA305003280DD80026DFE851
:100E100000F0020E1613D9F80000002640F400304E
:100E2000C9F800004EB912E0012636B90FE0201DC6
:100E3000022101F061FB06464EB1B04611E004F11B
:100E40002400022101F0E8FB0646002EF5D1D9F876
:100E50002400616E20F440100843C9F824004FF0CC
:100E600000086078C0072FD0606D042807D8DFE83D
:100E700000F00A131B030300F6B1B04624E001267C
:100E8000002EFAD118E0D9F8000040F40030C9F87B
:100E90000000002EF1D10FE0201D002101F02CFBFD
:100EA0000646002EE9D107E004F12400002101F0FC
:100EB000B3FB0646002EE0D1D9F82400616D20F086
:100EC00007000843C9F824006078800731D5A06D79
:100ED0004FEAB010042807D8DFE800F00A131B031C
:100EE0000300F6B1B04624E00126002EFAD118E046
:100EF000D9F8000040F40030C9F80000002EF1D10C
:100F00000FE0201D002101F0F7FA0646002EE9D17E
:100F100007E004F12400002101F07EFB0646002ECC
:100F2000E0D1D9F82400A16D20F4E0700843C9F89D
:100F300024006078400733D5D4F8A4004FEA7050FD
:100F4000042807D8DFE800F00A131B030300F6B1FA
:100F5000B04625E00126002EFAD118E0D9F80000AD
:100F600040F40030C9F80000002EF1D10FE0201D40
:100F7000002101F0C1FA0646002EE9D107E004F194
:100F80002400002101F048FB0646002EE0D1D9F8EC
:100F90002C00D4F8A41020F460000843C9F82C00F9
:100FA0006078000733D5D4F8A8004FEA30600428F1
:100FB00007D8DFE800F00A131B030300F6B1B046C0
:100FC00025E00126002EFAD118E0D9F8000040F4FF
:100FD0000030C9F80000002EF1D10FE0201D0021E3
:100FE00001F08AFA0646002EE9D107E004F1240058
:100FF000002101F011FB0646002EE0D1D9F82C00AB
:10100000D4F8A81020F0E0600843C9F82C00E0787C
:10101000800727D5A06C4FEA3010032806D8DFE8F8
:1010200000F002091202AEB1B0461BE00126002E0C
:10103000FAD10FE0D9F8000040F40030C9F8000000
:10104000002EF1D106E0201D022101F055FA0646DE
:10105000002EE9D1D9F82000A16C20F0300008431F
:10106000C9F820006078C00631D5E06D4FEA303015
:10107000042807D8DFE800F00A131B030300F6B1C9
:10108000B04624E00126002EFAD118E0D9F800007D
:1010900040F40030C9F80000002EF1D10FE0201D0F
:1010A000002101F029FA0646002EE9D107E004F1FB
:1010B0002400002101F0B0FA0646002EE0D1D9F854
:1010C0002400E16D20F4E0400843C9F82400607872
:1010D000800625D5206E4FEA3040052807D8DFE886
:1010E00000F0030A0F03030396B1B04618E001268F
:1010F000002EFAD10CE0201D012101F0FDF904E0E1
:1011000004F12400012101F087FA0646002EECD1FB
:10111000D9F82400216E20F4E0200843C9F8240007
:101120006078400627D5D4F8AC004FEA3070052827
:1011300007D8DFE800F0030A0F03030396B1B046B7
:1011400019E00126002EFAD10CE0201D012101F04A
:10115000D3F904E004F12400012101F05DFA064610
:10116000002EECD1D9F82C00D4F8AC1020F0E040DF
:101170000843C9F82C00607800061FD5E06ED0B196
:10118000B0F1005F12D0B0F1805F24D1D9F8000037
:1011900040F40030C9F800007EB9D9F82400E16EAF
:1011A00020F040500843C9F8240007E0201D012129
:1011B00001F0A2F90646002EEFD0B046E078C00755
:1011C00029D0606C03280AD8DFE800F0020D16026F
:1011D000CEB1B0461FE00126002EEED1DDE701269C
:1011E000002EF6D10FE0D9F8000040F40030C9F825
:1011F0000000002EEDD106E0201D022101F07CF957
:101200000646002EE5D1D9F82000616C20F00300DD
:101210000843C9F82000A078400643D5D9F8D40384
:1012200040F48070C9F8D403FFF7DEFB074600BF27
:10123000D9F8D403C00505D4FFF7D6FBC01B652839
:10124000F6D303266EBBD9F84410D4F8B000414061
:1012500011F4407F11D0D9F84410D9F8442042F459
:101260008032C9F84420D9F8442021F4407122F496
:101270008032C9F84420C9F84410B0F5807F0FD1FE
:10128000FFF7B2FB074641F2893500BFD9F84400A9
:10129000800705D4FFF7A8FBC01BA842F6D303269E
:1012A00086B1B0462078C00741D0A06F4FEAF00069
:1012B000052823D8DFE800F003262B03030376B3C9
:1012C000B04634E04FF6CF73D4F8B00059F81C2C78
:1012D000C0F2FF0300F4407122F47C5203EA1013C1
:1012E000B1F5407F08BF1A436FF31F3049F81C2C3B
:1012F000D9F844100843C9F84400D3E70126002E6A
:10130000DED10CE0201D012101F0F6F804E004F12B
:101310002400012101F080F90646002ED0D1D9F831
:101320002800A16F20F038000843C9F82800207871
:10133000800723D5606F052807D8DFE800F0030A8F
:101340000F03030396B1B04618E00126002EFAD130
:101350000CE0201D012101F0CFF804E004F124008D
:10136000012101F059F90646002EECD1D9F82800E8
:10137000616F20F007000843C9F828002078400773
:1013800025D5D4F89000052807D8DFE800F0030A37
:101390000F03030396B1B04619E00126002EFAD1DF
:1013A0000CE0201D012101F0A7F804E004F1240065
:1013B000012101F031F90646002EECD1D9F82C00BC
:1013C000D4F8901020F007000843C9F82C002078CA
:1013D000800627D5D4F88C004FEA3070052807D84E
:1013E000DFE800F0030A0F03030396B1B04619E0EB
:1013F0000126002EFAD10CE0201D002101F07CF81E
:1014000004E004F12400022101F006F90646002E52
:10141000ECD1D9F82800D4F88C1020F0E040084333
:10142000C9F828002078400627D5D4F898004FEA5C
:10143000B020052807D8DFE800F0030A0F030303F4
:1014400096B1B04619E00126002EFAD10CE0201D1D
:10145000002101F051F804E004F12400022101F020
:10146000DBF80646002EECD1D9F82C00D4F8981001
:1014700020F4E0500843C9F82C002078000627D556
:10148000D4F89C004FEA7030052807D8DFE800F058
:10149000030A0F03030396B1B04619E00126002E9C
:1014A000FAD10CE0201D002101F026F804E004F13F
:1014B0002400022101F0B0F80646002EECD1D9F844
:1014C0002C00D4F89C1020F460400843C9F82C008C
:1014D0002078000716D5D4F88000B0F5805F08D1D9
:1014E00004F12400022101F097F8002818BF4FF002
:1014F0000108D9F82800D4F8801020F4405008439F
:10150000C9F828002078C00616D5D4F89400B0F5A4
:10151000807F08D104F12400022101F07DF8002829
:1015200018BF4FF00108D9F82C00D4F8941020F41B
:1015300040700843C9F82C00A078000721D5D4F8E2
:10154000A000B0F5003F19D0B0F5803F10D0C0BB6F
:10155000201D002100F0D0FF06468EB9D9F82C00DE
:10156000D4F8A01020F440300843C9F82C0008E05B
:1015700004F12400022101F04FF80646002EEDD0C0
:10158000B046A078400729D5D4F88400B0F5401FB4
:1015900021D0B0F5001F18D0B0F5801F40F0B48006
:1015A000D9F8000040F40030C9F80000AEB9D9F80D
:1015B0002800D4F8841020F440100843C9F828000B
:1015C0000CE00126002EDBD1C8E704F12400012144
:1015D00001F022F80646002EE9D0B046A078C007F8
:1015E0001FD0E06CB0F5803F10D0B0B9D9F8000042
:1015F00040F40030C9F8000096B9D9F82000E16C39
:1016000020F480300843C9F820000AE0201D0221A0
:1016100000F072FF06461EB9EFE70126002EECD05F
:10162000B046E078800608D504F12400022100F0DD
:10163000F3FF002818BF4FF001082068810313D47E
:10164000C10229D4C10031D481023AD4410042D42C
:10165000B0F1FF3F4FDDB8F1000F18BF4FF00108A8
:10166000404601B0BDE8F083E16F6FF0010202EB8C
:101670003122022A0AD34FEA31223AB1012A48D153
:10168000D9F8002042F40032C9F80020002E43D0DF
:101690004FF00108C102D5D5D9F82410226F21F0EE
:1016A00000411143C9F82410C100CDD559F81C1CC4
:1016B000D4F8B42021F48041114349F81C1C810264
:1016C000C4D5D9F82410A26E21F080711143C9F855
:1016D00024104100BCD559F81C1C21F4004149F8E4
:1016E0001C1CD4F8B81059F81C2C114349F81C1CC8
:1016F000B0F1FF3FAFDCD9F82000216D20F0405061
:101700000843C9F82000A6E70126002E7FF465AF44
:101710004DE70126002EBBD1D9F8282022F44072D3
:101720001143C9F82810C1027FF58CAFB4E700005F
:101730002DE9F04381B0002800F0F28042F2000869
:101740000446C5F200288946D8F8000000F00F00D2
:1017500088420ED2D8F8000020F00F0040EA0900BD
:10176000C8F80000D8F8000000F00F00484540F02D
:10177000D780206844F218474107C5F602070AD50A
:1017800021693A6802F07002914204D93A6822F065
:1017900070021143396001070AD561697A6802F065
:1017A0007002914204D97A6822F070021143796084
:1017B000C1060AD5A1697A6802F4E062914204D9AF
:1017C0007A6822F4E0621143796081060AD5E16902
:1017D000BA6802F07002914204D9BA6822F070022D
:1017E0001143B96081070AD5E1683A6802F00F0237
:1017F000914204D93A6822F00F0211433960C007C0
:101800007ED1206881070AD5E1683A6802F00F02AC
:10181000914204D23A6822F00F0211433960D8F89D
:10182000001001F00F0149450DD9D8F8001021F042
:101830000F0141EA0901C8F80010D8F8001001F0C2
:101840000F0149456CD141070AD521693A6802F078
:101850007002914204D23A6822F07002114339605A
:1018600001070AD561697A6802F07002914204D2D8
:101870007A6822F0700211437960C1060AD5A16925
:101880007A6802F4E062914204D27A6822F4E0625B
:101890001143796080060AD5E069B96801F07001EA
:1018A000884204D2B96821F070010843B86000F0A2
:1018B000B7F8396843F2AC22C0F60002C1F3032145
:1018C0003B6803F00F03515CD25C01F01F01C8407C
:1018D00002F01F0140F2040220FA01F1C2F20042BC
:1018E000116040F2000140F20C02C2F20041C2F26B
:1018F000004208601068FFF7C3F801B0BDE8F0834C
:10190000386820F47061D4E90102032841EA020139
:10191000396009D0022829D157F8181C890307D447
:10192000012001B0BDE8F08357F8181C8901F7D5F4
:1019300057F8081C21F00701084347F8080CFFF787
:1019400053F8064641F2883557F8080C616800F0F4
:101950003800B0EBC10F3FF454AFFFF745F8801BE0
:10196000A842F1D9032001B0BDE8F083012857F85F
:10197000181C02D1C905D3D5DAE74907D0D5D7E776
:1019800080B500F04DF844F2184143F2AC23C5F69F
:101990000201C0F600030A68C2F30322096801F0DD
:1019A0000F019A5C595C02F01F0220FA02F201F06A
:1019B0001F0040F2040122FA00F0C2F20041086068
:1019C00040F20001C2F200410A6080BD0000000048
:1019D00080B5FFF7D5FF44F21C4143F2AC22C5F6B7
:1019E0000201C0F600020968C1F30211515C01F066
:1019F0001F01C84080BD000080B5FFF7C1FF44F261
:101A00001C4143F2AC22C5F60201C0F6000209688F
:101A1000C1F30221515C01F01F01C84080BD0000EC
:101A200044F20041C5F602010869C0F3C200032870
:101A30000FD002282BD078BB0868800649F200003E
:101A4000C0F2D03058BF70470968C1F3C101C84027
:101A500070478A6A886AC0F3051CCB6A486B03F03A
:101A60000103BCF1000FC0F3CC0003FB00F000EE5B
:101A7000100AB8EE400A14D002F00302022A12D073
:101A8000A2B90868800614D49FED251A1EE047F617
:101A90004000C0F27D10704740F60010C0F23D00DB
:101AA0007047002070479FED1D1A0FE09FED1A1A36
:101AB0000CE0086849F20002C0F2D032C0F3C10065
:101AC00022FA00F001EE100AB8EE411A02EE10CA36
:101AD0009FED144AB8EE422A086B6FF35F2003EEC5
:101AE000100A81EE021AB8EE433A086B00EE043A8F
:101AF000B7EE000AC0F34620013033EE000A21EEB3
:101B0000000A01EE100AB8EE411A80EE010ABCEE9E
:101B1000C00A10EE100A70470024744A20BCBE4B65
:101B20000024744C000000392DE9F041002800F039
:101B300048810446007844F20046C007C5F6020614
:101B40004DD0306900F03801B06A102905D018294D
:101B50000AD100F00300022806D1306880033AD58C
:101B60006068C0BB012727E065686DB1B5F5803FAF
:101B700006D0B5F5A02F306807D140F48020306042
:101B8000306840F4803006E0306820F48030306007
:101B9000306820F480203060FEF726FF002D0546D7
:101BA00016D000BF3068800315D4FEF71DFF401B20
:101BB000B0F5FA7FF6D903270020002800F017823D
:101BC0000DE000BFFEF710FF401BB0F5FA7FF2D822
:101BD00030688003F6D40120002800F008822078C5
:101BE000800754D5306910F03801B06A17D0182931
:101BF00008BF5FEA807012D0E068316850B321F00E
:101C0000190108433060FEF7EFFE054630684007D3
:101C10000AD4FEF7E9FE401B0228F7D928E0306815
:101C2000400701D5E06868B3FEF7D6FE41F2030134
:101C3000884208D820697168402821F47C3119D184
:101C400041F4003018E07068216920F0FE4040EA5D
:101C5000016011E021F001003060FEF7C5FE05468D
:101C60003068400709D5FEF7BFFE401B0328F7D3B5
:101C7000032708E041EA003070600120002800F0EE
:101C8000B68104E001270020002800F0B081207810
:101C9000C0065AD5306900F03801B06A082905D06D
:101CA000182918D100F00300012814D13068C005AC
:101CB00002D5E069802843D1FEF78EFE41F2030190
:101CC00088421CD8206A7168202821F0F8412FD161
:101CD00041F080402EE0E0690028306817D040F0E5
:101CE00080003060FEF780FE054600BF3068C0050A
:101CF000E2D4FEF779FE401B0228F7D916E0F0681F
:101D0000216A20F07C5040EA0160F06013E020F08E
:101D100080003060FEF768FE054600BF3068C005F1
:101D200009D5FEF761FE401B0328F7D3032708E01F
:101D300041EA806070600120002800F0588104E0D2
:101D400001270020002800F05281207800073CD4B1
:101D5000207880064DD4207840075ED4656A65B34C
:101D6000306900F03800182840F09E80012DB16ADB
:101D7000306B26D001F00302A36A9A4221D1C1F34D
:101D80000511E26A91421CD10146226B6FF35F217B
:101D9000013A914215D1C0F34621626B013A91425A
:101DA0000FD1C0F30641A26B013A914209D1C0F3B1
:101DB0000660E16B0139884203D10027F8B2BDE823
:101DC000F0810127F8B2BDE8F08160690028706FEA
:101DD00039D040F001007067FEF706FE054600BFEF
:101DE000706F8007B4D4FEF7FFFD401B0228F7D9BF
:101DF00025E0A0690028306844D040F4805030606D
:101E0000FEF7F2FD054600BF30688004A3D4FEF75C
:101E1000EBFD401B0228F7D911E0D6F8000440F48E
:101E20008070C6F80004FEF7DFFD0546D6F8000412
:101E3000C00519D4FEF7D8FD401B6428F6D9032746
:101E4000F8B2BDE8F08120F001007067FEF7CCFD2C
:101E500005460327706F80077FF57AAFFEF7C4FD54
:101E6000401B0228F6D9C2E0A568EDB3012D05D0CC
:101E7000052D306F39D140F004003067306F40F0ED
:101E8000010038E020F480503060FEF7ADFD0546DB
:101E9000032700BF306880047FF55DAFFEF7A4FD27
:101EA000401B0228F6D9A2E0306820F08070306034
:101EB000FEF79AFD022D05464FF003070AD100BF39
:101EC0003068800135D5FEF78FFD401B0228F7D919
:101ED0008DE000BF306880017FF56FAFFEF784FDB5
:101EE000401B0228F6D982E0306F20F001003067F5
:101EF000306F20F004003067FEF776FD002D0546B8
:101F000041F288384FF003070FD000BF306F8007D1
:101F10003FF524AFFEF768FD401B4045F6D966E06B
:101F2000FEF762FD401B404561D8306F8007F7D453
:101F300014E704F12807B06A40F2F33188438ECFEA
:101F40000843591E40EA02104FF47E42B06202EB91
:101F500047206FF35F214FF4FE0280B2E36B084429
:101F6000A16B02EB01414FF0FE4201F4FE0102EBD6
:101F70000362084402F0FE4108443063F06A4FF601
:101F8000F87120F00100F062706BA26C884340EAA7
:101F9000C2007063F06A216C20F00C000843F0620C
:101FA000F06A616C20F002000843F062F06A40F4CD
:101FB0008030F062F06A40F40030F062F06A40F481
:101FC0008020F062F06A40F00100F062306840F07A
:101FD00080703060FEF708FD0446032730688001FA
:101FE0003FF5EBAEFEF700FD001B0228F6D9F8B274
:101FF000BDE8F0810000000080B500F0E9FB80BD85
:1020000090F87C10012901D1022070472421C0F8EA
:10201000801002681368116823F0005321F0010159
:1020200011600021416613602022C0F8802080F8F2
:102030007C10084670470000704700000000000058
:10204000B0B5044690F87C00012801D10220B0BD53
:10205000012084F87C002420C4F8800020680568F2
:10206000026822F001020260826822F0606211437D
:102070008160204600F09CFC206805602020C4F8A8
:102080008000002084F87C00B0BD0000000000004B
:10209000B0B5044690F87C00012801D10220B0BD03
:1020A000012084F87C002420C4F8800020680568A2
:1020B000026822F001020260826822F0604211434D
:1020C0008160204600F074FC206805602020C4F880
:1020D0008000002084F87C00B0BD000000000000FB
:1020E0007047000000000000704700000000000082
:1020F000704700000000000070B50368044640F619
:102100002F00D9691E6808409A6820280CD106F073
:10211000200002F08055401906D0E16E002900F041
:10212000A8802046884770BD40F60F00084000F0A8
:102130008880012040F22015C1F20000C0F2004565
:1021400002EA000C06EA050010EB0C0079D0C80783
:1021500018BF16F4807007D001201862D4F88800E8
:1021600040F00100C4F88800880702F0010E0AD58B
:10217000BEF1000F07D002201862D4F8880040F0AA
:102180000400C4F8880048070AD5BEF1000F07D044
:1021900004201862D4F8880040F00200C4F88800D7
:1021A00008070CD506F0200050EA0C0007D00820E4
:1021B0001862D4F8880040F00800C4F888000805C8
:1021C0000BD516F0806008D04FF400601862D4F888
:1021D000880040F02000C4F88800D4F88800002867
:1021E00047D011F0200009D006F0200002F0805105
:1021F000401803D0E16E09B1204688472068D4F822
:102200008810806801F0280100F0400040183DD09F
:10221000204600F0A9FC20688168490632D5816813
:1022200021F040018160A06F60B342F65131C0F6E9
:1022300000010165FEF788F9D8B1A06F016D8847EC
:1022400070BDC80209D512F4800006D04FF480108A
:1022500018622046FFF748FF70BD08060AD506F051
:10226000800002F40002801804D0216F00297FF45E
:1022700058AF70BD01EA060040060ED5204600F0BA
:1022800087FC70BD2046FFF733FF70BD2046FFF787
:102290002FFF0020C4F8880070BD080206D516F094
:1022A000804003D02046FFF71BFF70BDC801E0D57A
:1022B000B6F1FF3FC8BF70BD2046FFF7BDFE70BD41
:1022C00010B5B0B10446D0F8800028B9002084F8D9
:1022D0007C00204600F028F82420C4F88000206804
:1022E000016821F001010160204600F061FC012835
:1022F00001D1012010BDA06A10B1204600F084FB7E
:102300002068416821F490414160816821F02A01F0
:102310008160016841F001010160204600F0E4FBAA
:1023200010BD00000000000080B586B000210591BE
:10233000CDE9031141F200020068C4F201020291EA
:102340009042019101D006B080BD44F2E040C5F654
:102350000200026942F010020261026902F01002FA
:102360000092009A026842F001020260006800F0E8
:102370000100009000984FF4C06001900220CDE968
:1023800002010720059000200491C5F6020001A972
:10239000FEF746FA252000210022FEF7B1FB25209A
:1023A000FEF7AAFB06B080BD7047000000000000E9
:1023B000FEE700000000000070B586B044F2E04087
:1023C0000025C5F602000595CDE90355CDE9015577
:1023D0000168002441F0010101600168C5F60204B2
:1023E00001F0010100910099016841F004010160D0
:1023F0000168002201F0040100910099016841F098
:10240000800101600068012100F0800000900098C8
:1024100020460126FEF7D8FA01A92046CDE901663B
:10242000CDE90355FEF7FCF906B070BD00000000D1
:1024300080B540F2700041F20001C2F20040C4F2E7
:1024400001010C2201604FF4E13141600021C0E93B
:1024500002110161C0E90521C0E90711C0E90911B4
:10246000FFF72EFF08B1FEF76BF840F27000002175
:10247000C2F20040FFF70CFE08B1FEF761F840F22F
:1024800070000021C2F20040FFF7DAFD08B1FEF74C
:1024900057F840F27000C2F20040FFF7B1FD00288B
:1024A00008BF80BDFEF74CF880BD000000000000B2
:1024B000FEE7000000000000704700000000000080
:1024C00000F007004FF0FF3C80F00703042B28BF0B
:1024D0000423033838BF00200CFA03F399430CFAA5
:1024E00000F301FA00F022EA0301084370470000FC
:1024F0007047000000000000F0B581B044F22C47A6
:10250000C5F6020757F8042C02F00302032A02D191
:10251000012001B0F0BD054657F82C0C0C4620F008
:10252000806047F82C0CFEF75FFA064657F82C0C33
:10253000000105D5FEF758FA801B0228F6D964E0A1
:1025400057F8040CEE6895E80E0020F47C3040EA61
:102550000130A2F101014FF47E4247F8040C02EB76
:1025600043224FF0FE436FF35F2192B202EB010072
:102570004FF4FE012A6901EB064101F4FE0103EB71
:102580000262084402F0FE410844F8603868696954
:1025900020F0C00040EA010038603868A96920F0E6
:1025A000200040EA0100386038684FF6F87120F0EA
:1025B000100038603869EA6920EA010040EAC20088
:1025C0003861386840F0100038602CB1012C386850
:1025D00006D140F4801005E0386840F4002001E0A6
:1025E00040F40010386057F82C0C40F0806047F839
:1025F0002C0CFEF7F9F9044657F82C0C000107D40F
:10260000FEF7F2F9001B0328F6D3032001B0F0BD5A
:10261000002001B0F0BD0000F0B581B044F22C47BD
:10262000C5F6020757F8042C02F00302032A02D170
:10263000012001B0F0BD054657F82C0C0C4620F0E7
:10264000805047F82C0CFEF7CFF9064657F82C0CB3
:10265000800005D5FEF7C8F9801B0228F6D964E092
:1026600057F8040CEE6895E80E0020F07C7040EA04
:102670000150A2F101014FF47E4247F8040C02EB35
:1026800043224FF0FE436FF35F2192B202EB010051
:102690004FF4FE012A6901EB064101F4FE0103EB50
:1026A0000262084402F0FE410844786138686969B2
:1026B00020F4406040EA010038603868A96920F4DD
:1026C000007040EA0100386038684FF6F87120F475
:1026D00080703860B869EA6920EA010040EAC20007
:1026E000B861386840F4807038602CB1012C3868CB
:1026F00006D140F4000005E0386840F4800001E0B5
:1027000040F08070386057F82C0C40F0805047F84B
:102710002C0CFEF769F9044657F82C0C800007D4FE
:10272000FEF762F9001B0328F6D3032001B0F0BDC9
:10273000002001B0F0BD000070B54EF6145000212D
:10274000CEF2000043F6E07C0167BFF34F8FC26E0C
:10275000C2F34E31C2F3C90202F1010E930700BF6A
:102760000CEA41121C46754644EA0206013D04F19A
:102770004044C0F84C62F7D10029A1F10101EFD12A
:10278000BFF34F8F016841F480310160BFF34F8F79
:10279000BFF36F8F70BD00004EF614500021CEF2D3
:1027A0000000BFF34F8FBFF36F8FC0F83C12BFF331
:1027B0004F8FBFF36F8F016841F400310160BFF3A9
:1027C0004F8FBFF36F8F704770470000000000000D
:1027D000B0B501380024B4EB106F01D00120B0BDBA
:1027E0004EF210050F21CEF2000568604FF0FF3069
:1027F00000F01AFDAC60072028602046B0BD000044
:1028000080B5FEF7F9F880BD70B5CCB044F6180479
:1028100039A84C21C5F60204FDF726FE02A8BC210A
:102820000025CDE93755CDE93555CDE93355CDE90D
:102830003155FDF719FE0220FEF776F940F22C40E3
:102840000195C5F60000016821F0010101600068F2
:1028500000F001000190206840F4404020602068B2
:1028600000F440400190019820688004FCD50124C8
:1028700039944FF480303A9002200521CDE942008E
:102880004491A021CDE94510CDE9470039A808259C
:1028900049950026CDE94A66FFF746F93F20319079
:1028A00003204FF48061CDE9320634954020CDE914
:1028B0003500CDE9371031A80221FEF739FF02A813
:1028C00002942096FEF790FA4CB070BD0000000014
:1028D00080B54EF6885C42F2000ECEF2000CC5F2D6
:1028E000002EDCF8001041F47001CCF80010DEF886
:1028F000001001F00F01062906D8DEF800100722AB
:1029000062F30301CEF8001044F200414EF67F530B
:10291000C5F60201CEF6F6230A6842F001020A600B
:1029200000220A61086818400860DEF8000000070D
:1029300006D5DEF80000072363F30300CEF800009D
:1029400040F200208A61CA61C0F202200A628862F5
:102950000020C0F2FF10C86240F28020C0F20110D7
:1029600008634A638863CA6308644A64086820F499
:102970008020086041F200000A66C5F60040006849
:10298000B2EB507F05D148F208100121C5F20010CA
:10299000016044F2000043F2D201C5F20020016060
:1029A0004FF000604CF8800C80BD0000000000007B
:1029B00010B5416E01B3016843F2D42CC0F6000C8F
:1029C00043F2DC2E8A68C0F6000EC2F342628968C8
:1029D0004C0F1CF802301EF802101A011EF80430C9
:1029E000B2FBF1F11CF80420A0F868101201B2FB50
:1029F000F3F2A0F86A2010BD0121A0F86A10A0F837
:102A0000681010BD00000000816ACA070CD18A0757
:102A100015D44A071ED40A0727D4CA0630D48A061A
:102A200039D44A0655D541E00268D0F82CC0536825
:102A300023F4003343EA0C0353608A07E9D50268A4
:102A4000D0F830C0536823F4803343EA0C0353605A
:102A50004A07E0D50268D0F834C0536823F48023D5
:102A600043EA0C0353600A07D7D50268D0F838C090
:102A7000536823F4004343EA0C035360CA06CED5DF
:102A80000268D0F83CC0936823F4805343EA0C03F7
:102A900093608A06C5D50268D0F840C0936823F4D5
:102AA000005343EA0C0393604A0612D50268D0F83B
:102AB00044C0BCF5801F536823F4801343EA0C0321
:102AC000536006D1536823F4C00C836C43EA0C03B3
:102AD0005360090658BF70470168C06C4A6822F409
:102AE0000022104348607047B0B582B00446002011
:102AF000C4F88800FDF778FF2168054609680907D2
:102B00000AD54FF4001100226FF07E40009020465D
:102B10002B4600F009FB70B92068006840070DD50E
:102B20004FF4800100226FF07E40009020462B463B
:102B300000F0FAFA10B1032002B0B0BD2020C4F8B2
:102B40008000C4F88400002084F87C0002B0B0BD8E
:102B500080B5806B0021A0F85E10A0F85610FFF73A
:102B6000C7FA80BD0000000001684FF6FE73CEF684
:102B7000FF730A6822F490720A608A681A408A60B9
:102B80002021C0F884100021C166704700000000B9
:102B900080B501680A6822F040020A602021C0F86E
:102BA000801000210167FFF7FFFB80BD00000000DF
:102BB000F0B583B004460368806846F6F316D4E99E
:102BC0000312104362691043E2691043626E1F688A
:102BD000CCF6FF76104307EA0602104318605868E7
:102BE0004FF2FF4720F4405240F600401143596035
:102BF000C5F60000A1698342C1F2FF171CBF226A1B
:102C000011439A6847F2FF763A40C4F20006114336
:102C10009960DA6A44F2544122F00F02676AC5F6FD
:102C200002013A43B342DA624FF0800225DD40F6FA
:102C3000FF77C4F20107BB423FDD834200F07180A1
:102C400041F20047C4F20107BB4200F0758041F237
:102C50000007C4F20107BB4240F0A5800A68C2F336
:102C6000C203052B00F296800122DFE813F09C00DE
:102C700091009500970099009B0044F6FF37C4F23D
:102C80000007BB4233DC44F20047C4F20007BB42FA
:102C900000F05D8044F60007C4F20007BB4240F03C
:102CA00082800A6802F00703052B00F2738000227D
:102CB000DFE803F0796E7274767847F60007C4F2A5
:102CC0000007BB4200F04E8047F60047C4F2000701
:102CD000BB4240F068800A6802F00703052B00F24F
:102CE00059800022DFE803F05F54585A5C5E44F6D6
:102CF0000047C4F20007BB4200F03F8045F20007E6
:102D0000C4F20007BB4240F04E800A6802F007039D
:102D1000052B00F23F800022DFE803F0453A3E40F9
:102D200042444A6802F00703052B33D80222DFE849
:102D300003F03A2F333537390A68C2F3C203052B43
:102D400028D80122DFE803F02F24282A2C2E0A6835
:102D500002F00703052B1DD80022DFE803F0241939
:102D60001D1F21230A6802F00703052B12D8002239
:102D7000DFE803F0190E121416180A6802F00703B0
:102D8000052B07D80022DFE803F00E0307090B0D1F
:102D9000042208E0802206E0082204E0102202E07B
:102DA000202200E040222368834240F60010C0F257
:102DB0003D0000F05380E369B3F5004F40F07880A8
:102DC000402A00F21A810025DFE812F041001201CA
:102DD000170117011B011701170117011F01170127
:102DE0001701170117011701170117012601170114
:102DF0001701170117011701170117011701170113
:102E000017011701170117011701170134011701E5
:102E100017011701170117011701170117011701F2
:102E200017011701170117011701170117011701E2
:102E300017011701170117011701170117011701D2
:102E4000170117011701170117011701310100259B
:102E5000FEF7BEFD002840F0EF8040E1931E1E2BE0
:102E600000F274800027DFE813F01F0077007A007B
:102E70007700770077007E00770077007700770093
:102E8000770077007700B800770077007700770049
:102E9000770077007700770077007700770077007A
:102EA00077007700770083000027FDF761FE5FE081
:102EB000402A00F2E1800025DFE812F04100D9004D
:102EC000DE00DE00E200DE00DE00DE00E600DE0006
:102ED000DE00DE00DE00DE00DE00DE00ED00DE00F3
:102EE000DE00DE00DE00DE00DE00DE00DE00DE00F2
:102EF000DE00DE00DE00DE00DE00DE00FB00DE00C5
:102F0000DE00DE00DE00DE00DE00DE00DE00DE00D1
:102F1000DE00DE00DE00DE00DE00DE00DE00DE00C1
:102F2000DE00DE00DE00DE00DE00DE00DE00DE00B1
:102F3000DE00DE00DE00DE00DE00DE00F800002540
:102F4000FEF746FD002840F0B580C8E0402A03D1D6
:102F50004FF4004000270BE00020012708E06846FE
:102F6000FDF71AFE02E06846FDF7AAFE0027019869
:102F700078B3616A43F2BC22C0F60002666801259C
:102F800032F8112006EB4603B0FBF2F19942C0F093
:102F9000A6803303994200F2A28000210023FDF7AE
:102FA000EBF90902002341EA10613246000210EBFE
:102FB000560041F10001FDF7DFF94FF6FF42A0F5A1
:102FC0004071C0F20F02914205D821683D46C860A9
:102FD00085E03D4683E0012581E051F8540C8006F0
:102FE00049F20000C0F2D03000F182800027BFE734
:102FF0000025FEF701FDF8B971E000200125D8B9E0
:103000006DE06846FDF7C8FD02E06846FDF758FE32
:103010000025019880B962E051F8540C800649F20D
:103020000000C0F2D0306AD4002528B957E04FF430
:1030300000400025002852D0616A43F2BC22C0F64D
:10304000000232F811106268B0FBF1F0510801EB98
:103050004000B0FBF2F14FF6F070084005D0C1F32C
:10306000420122680843D06039E0012537E000259D
:10307000FEF7C2FCF0B932E000200125D0B92EE005
:103080006846FDF789FD02E06846FDF719FE002558
:10309000019878B923E051F8540C800649F20000F9
:1030A000C0F2D03035D4002520B918E04FF40040EC
:1030B0000025A0B1616A43F2BC22C0F6000232F8DA
:1030C00011106268B0FBF1F000EB5200B0FBF2F0BF
:1030D00080B2102802D32168C86000E001254FF0BB
:1030E0000110A0660020C4E91B00284603B0F0BD13
:1030F00051F8541C0027C1F3C101C84038E751F80A
:10310000541C0025C1F3C101C84000287FF494AFCE
:10311000E5E751F8541C0025C1F3C101C84000285F
:10312000C8D1DCE7000000002DE9F04381B004467F
:103130000068C0690840401AB0FA80F04009904227
:1031400037D1DDF820800D461646994608F1010773
:1031500009E000BF2068C0692840401BB0FA80F039
:103160004009B04225D1002FF4D0FDF73DFC216885
:10317000B8F1000F0A6820D0A0EB090040451CD828
:10318000500744BFC8695FEA0050E3D54FF40060C0
:103190000862086820F4D0700860886820F0010098
:1031A00088602020C4F88000C4F88400C4F8880037
:1031B0000FE0002001B0BDE8F08322F4D070086079
:1031C000886820F0010088602020C4F88000C4F8DE
:1031D0008400002084F87C00032001B0BDE8F08367
:1031E00080B540F27000C2F20040FEF785FF80BD5E
:1031F000FEE7000000000000002848BF70474EF2C4
:10320000001300F01F014009CEF20003012202FA70
:1032100001F143F8201070474EF60C50CEF200003A
:103220000068C0F3022070474EF6145300F00F02FE
:10323000CEF20003B0F1FF3F1A4400F16043C8BF73
:1032400003F56442080110707047000000000000A0
:103250004EF60C514FF6FF03CEF200010A681A40F9
:1032600060F30A2242F0806040F0FD700860704711
:10327000FFF792FAFFF760FAFDF7CEFBFFF7C4FA0B
:10328000FFF79AF8FFF7D4F84FF47A70FDF7B4FA25
:10329000FAE7F1EE100A4FF6FF71C0F2C03120EAF2
:1032A000010040F04070E1EE100A7047000000009D
:1032B00001020304010203040607080901000200D9
:1032C0000400060008000A000C0010002000400066
:1032D000800000010101010307010000080402044D
:1032E000080101010833000800000024100000005C
:1032F000D40200081833000810000024F006000073
:10330000F0020008000000000090D0030090D003FD
:083310000100000010000000A4
:040000050800029954
:00000001FF
